:020000040800F2
:10000000B806002019130008ED040008EF040008EA
:10001000F3040008F7040008FB04000800000000D7
:10002000000000000000000000000000FF040008C5
:100030000105000800000000030500080505000890
:100040007306000833130008331300083313000845
:100050003313000833130008331300083313000868
:100060003313000833130008331300083313000858
:100070003313000833130008331300083313000848
:100080003313000833130008331300083313000838
:100090003313000833130008331300083313000828
:1000A0003313000833130008331300083313000818
:1000B0003313000833130008E10600083313000867
:1000C00033130008331300083313000833130008F8
:1000D00033130008C30B0008331300083313000860
:1000E00033130008331300083313000800F002F83C
:1000F00000F042F80AA090E8000C82448344AAF180
:100100000107DA4501D100F037F8AFF2090EBAE87D
:100110000F0013F0010F18BFFB1A43F0010318473B
:10012000DC3E0000FC3E0000103A24BF78C878C1D5
:10013000FAD8520724BF30C830C144BF04680C60ED
:10014000704700000023002400250026103A28BF35
:1001500078C1FBD8520728BF30C148BF0B60704739
:10016000642903F07783752903F0748300207047B6
:100170001FB51FBD10B510BD03F034FC1146FFF7CD
:10018000F7FF00F009F803F052FC03B4FFF7F2FFA9
:1001900003BC00F07BF900008EB04FF4A06001F0CA
:1001A000C3FE012141F20D2001F0F6FD01210846B8
:1001B00001F0E5FD0121084601F0FBFD00F0A4F986
:1001C00041F61F41092000F05FFA00F023FF00F024
:1001D000FFFE022211464FF4E13000F0A1FC4FF483
:1001E000FA7000F0AAF900F0D0FB06E0A9A003F035
:1001F000F1FA4FF47A7000F0C4F900F0E2FB002845
:10020000F4D14FF4FA6000F0BCF900F0FBFB4FF4BE
:100210007A7000F0B6F94FF47A7000F0B2F934E178
:1002200000F0F0FB00BF09A800F04BFC4028FAD119
:1002300009A800F08DFD00F0FCFB9B494988A1F561
:10024000006003F05FFD07464FF08A4103F05CFC5D
:100250000646964903F082FD054603F033FD84B25D
:100260009148008840F60201884215DC8E490888D2
:1002700003F060FD80468E4903F046FC07468D4939
:1002800003F06CFD06468B4903F03EFE054603F085
:10029000FDFC40B203901EE08348008840F6340124
:1002A000884216DB80480088A0F634007E4908802A
:1002B000088803F03FFD07467F4903F025FC06460A
:1002C0007E4903F04BFD054603F0E0FC40B203908D
:1002D00001E0002003907448C08840F60201884283
:1002E00015DC7149C88803F025FD8046744903F088
:1002F0000BFC0746734903F031FD0646714903F0D4
:1003000003FE054603F0C2FC00B202901EE0664800
:10031000C08840F64801884216DB6348C088A0F6D2
:1003200034006149C880C88803F004FD0746664967
:1003300003F0EAFB0646634903F010FD054603F0AF
:10034000A5FC00B2029001E000200290564880888F
:10035000B0F5FA6F15DC5449888803F0EBFC804651
:10036000534903F0D1FB0746564903F0F7FC064614
:10037000544903F0BFFD054603F088FC00B201902C
:100380001EE04948808840F63401884216DB464822
:100390008088A0F6340044498880888803F0CAFC2D
:1003A0000746454903F0B0FB0646484903F0D6FC32
:1003B000054603F06BFC00B2019001E000200190C3
:1003C000AB208DF8100020128DF81100E0B28DF8EE
:1003D00012009DF80C008DF81300BDF80800000A0B
:1003E0008DF81400BDF80800C0B28DF81500BDF8F6
:1003F0000400000A8DF81600BDF80400C0B28DF8A4
:1004000017009DF811009DF8121048409DF8131038
:1004100048409DF8141048409DF8151048409DF83C
:10042000161048409DF8171048408DF818002848CD
:100430000078012822D1002025490870AC208DF8D1
:100440001900244800788DF81A00234800788DF8A8
:100450001B00224800788DF81C00214800788DF898
:100460001D00204800788DF81E001F4800788DF888
:100470001F000020194908701B49087000BF00BF09
:1004800004A800F0EDFA2028FAD1C9E6014600BF21
:10049000704700004E524632344C30312045727263
:1004A0006F720D0A00000000240000200080044448
:1004B0000000FA440000A042004003450000F04262
:1004C000002000450000484300800445000048C368
:1004D0001800002022000020200000201E00002024
:1004E00023000020210000201F000020704700BFD3
:1004F000FEE700BFFEE700BFFEE700BFFEE7704774
:10050000704770477047000010B56FF0040001F0AD
:100510005AFD2E4800682E49B0FBF1F02D490870B5
:100520000846007800EB4001C1EBC0104FF6FF71A8
:1005300001EAC0002849088010BD0146254A12780A
:100540004A434FF0E0235A6100229A611A46126929
:1005500042F001021A6100BF4FF0E022106900F082
:1005600001021AB100F48032002AF5D04FF0E022E7
:10057000126922F001024FF0E0231A6100229A6111
:1005800070470146144A12884A434FF0E0235A61EB
:1005900000229A611A46126942F001021A6100BFF4
:1005A0004FF0E022106900F001021AB100F480322D
:1005B000002AF5D04FF0E022126922F001024FF03C
:1005C000E0231A6100229A61704700002C0000208D
:1005D00000127A00040000200600002070B50546D5
:1005E0000C4645F2555001F03BFC284601F03BFC1F
:1005F000204601F03BFC01F03CFC01F03FFC70BDEB
:1006000010B501F036FC10BD08B500208DF80000D3
:1006100002208DF8010003208DF8020001208DF8E2
:100620000300684601F085FC08BD70B506460C461F
:1006300015460121C80201F0BCFB12480078304089
:1006400010490870284601F036FC204601F03CFCB9
:100650000C48007801F053FC01F05CFCFFF7D4FF7C
:1006600001F043FC70BD10B50446204601F047FC84
:1006700010BD10B50348007801F03BFC01F04AFCC6
:1006800010BD0000080000207FB505460C46012182
:10069000042001F08EFBADF80850ADF804400020B6
:1006A000ADF80A00ADF8060001A9154801F07EFD7D
:1006B00001221146124802F0F0F81E208DF80000C9
:1006C00002208DF801008DF8020001208DF8030052
:1006D000684601F02EFC0121094802F0C3F87FBDF5
:1006E00010B50121064802F086FB40B10121044803
:1006F00002F092FB03480068401C0249086010BDEC
:10070000000800400C00002070B50546002405E0FC
:10071000601CC4B2C82C01DD002070BD0221394824
:1007200002F0CDFC0028F3D02946364802F074FCD4
:10073000002405E0601CC4B2C82C01DD0020ECE7F9
:100740000121304802F0BBFC0028F3D02D4802F014
:1007500065FCC0B2E1E700B587B00121042001F0DB
:100760001BFB0121080301F017FBE020ADF8180086
:1007700018208DF81B0003208DF81A0006A92248C6
:1007800000F04AFEE021204800F0F3FE0020ADF822
:1007900004004FF48270ADF806000020ADF80800A8
:1007A0000220ADF80A000120ADF80C004002ADF8BF
:1007B0000E003820ADF810000020ADF81200072020
:1007C000ADF8140001A90F4802F050FB01210D48BB
:1007D00002F0F1FBFF20FFF797FF07B000BD10B557
:1007E0000446084800884FF6C7710840054908804C
:1007F00008460088204308800121024802F0DBFB04
:1008000010BD0000003001400008014070B50546F1
:100810000C460020B84908602846FFF775FF0646D9
:100820002046FFF771FF0120B449C1F8840130462A
:1008300070BD70B504460020AF4908602046FFF740
:1008400063FFFF20FFF760FF05460120AB49C1F8B9
:100850008401284670BD2DE9F04107460D46164635
:100860000020A54908603846FFF74EFF8046002467
:1008700005E0FF20FFF748FF2855601CC4B2B442D2
:10088000F7DB01209C4908604046BDE8F0812DE976
:10089000F04107460C461546002097490860384647
:1008A000FFF732FF8046002605E014F8010BFFF742
:1008B0002BFF701CC6B2AE42F7DB01208E490860E8
:1008C0004046BDE8F08100B587B00121082001F065
:1008D00063FA0320ADF8180010208DF81B000320E8
:1008E0008DF81A0006A9864800F096FD0321844879
:1008F00000F041FE0121042001F04EFA1020ADF875
:10090000180028208DF81B0003208DF81A0006A976
:100910007C4800F081FD10217A4800F02CFEFFF7A2
:100920001AFF0021784802F046FB0020ADF80400D1
:100930004FF48270ADF806000020ADF80800ADF865
:100940000A00ADF80C004FF40070ADF80E0018204E
:10095000ADF810000020ADF812000720ADF814002B
:1009600001A9694802F082FA0121674802F023FBDD
:100970001020FFF734FF00205F49091F08600120A5
:100980005E49C1F8840107B000BD10B5FFF79BFFB9
:1009900000205949091F086001212120FFF736FF77
:1009A00001212220FFF732FF28212520FFF72EFF0B
:1009B0000F212620FFF72AFF01205049C1F88001AE
:1009C00010BD1CB551A103C9CDE90001052269463E
:1009D0003020FFF75CFF052269461020FFF73BFF40
:1009E000002406E01DF80400A52800D003E0601CE8
:1009F000C4B2052CF6DB00BF052C01D001201CBDC4
:100A00000020FCE710B500203B49091F08600522C3
:100A100040492A20FFF73BFF20213120FFF7F6FE57
:100A20000F212020FFF7F2FE01203449C1F8800198
:100A300010BD10B500203049091F08600522364955
:100A40003020FFF724FF1A212420FFF7DFFE0E21BC
:100A50002020FFF7DBFE01202849C1F8800110BDEE
:100A600070B5054600202449091F086005222A495F
:100A70002A20FFF70CFF20222946A020FFF707FFBE
:100A800001201E49C1F8800100BF244800680028E9
:100A9000FBD10720FFF7CDFE044621462720FFF7B4
:100AA000B5FE04F0100028B1FF21E120FFF7AEFEF3
:100AB000102070BD04F0200008B12020F9E7FF20CD
:100AC000F7E770B504460720FFF7B3FE0546294651
:100AD0002720FFF79BFE05F0400050B12022214661
:100AE0006120FFF7B8FEFF21E220FFF78FFE4020D4
:100AF00070BDFF20FCE7000084812142008021427C
:100B0000000C01400008014000300140A5A5A5A54A
:100B1000A5000000F73F0008F23F00081001214245
:100B200070B586B004460E461546012144F2040015
:100B300001F032F94FF4A06001F0F6F925208DF8AC
:100B400000008DF802608DF8015001208DF803003F
:100B5000684601F0EEF94FF40070ADF81400012082
:100B60008DF8160018208DF8170005A9714800F0BF
:100B700053FC4FF48060ADF8140004208DF817008A
:100B800005A96C4800F048FC01940020ADF808006D
:100B9000ADF80A00ADF80C00ADF810000C20ADF86F
:100BA0000E0001A9644800F0C8FD0121624800F070
:100BB00050FE012240F225515F4800F056FE06B07B
:100BC00070BD10B540F225515B4800F01DFF0128B3
:100BD0007BD1594800F0AEFE5849594A12788854E2
:100BE0005748007860B908460078652808D000208A
:100BF0005349087040F225514F4800F045FF10BDA1
:100C00004F480078401C4E49087008460078072875
:100C10005BDB4A484078012845D1484880780C2859
:100C200006D00D2812D00E2809D00F281CD114E0B0
:100C300044480078401E40B24249087015E04148DF
:100C40000078401C40B23F4908700EE03E480078F2
:100C5000401E40B23C49087007E03B480078401C09
:100C600040B23949087000E000BF00BF364890F933
:100C700000007D2805DC344890F9000010F17D0F5C
:100C800002DA0020304908702E4890F900007D28D3
:100C900005DC2C4890F9000010F17D0F12DA0020DD
:100CA000284908700EE02548407802280AD12348D8
:100CB0008078022804D101202449087001E004E072
:100CC00000BF00BF00201E49087000BF97E770B545
:100CD00004460D46E1B2184800F028FE00BF80210E
:100CE000154800F091FE0128F9D1204670BD10B5DD
:100CF000FF21114800F01AFE00BF80210E4800F0CD
:100D000083FE0128F9D1FF210B4800F00FFE00BF40
:100D10008021094800F078FE0128F9D1FF2106481A
:100D200000F004FE00BF8021034800F06DFE0128A2
:100D3000F9D110BD0008014000380140100000202A
:100D4000170000201F0000201E00002018000020B7
:100D50002DE9F04F87B004462078AB287ED1657826
:100D6000A678E77894F80480607940B26649087004
:100D7000A07940B265490870E07940B264490870D2
:100D8000207A40B263490870607A4FFA80FB94F889
:100D90000A90E07A40B2069094F80CA05A4890F974
:100DA0000000002804DB594890F90000002810DA00
:100DB000554890F9000000EB8000544991F900106B
:100DC00001EB4000544991F90010401A5349088042
:100DD0000FE04D4890F9000000EB80004B4991F97D
:100DE000001001EB40004C4991F9001008444B49B8
:100DF0000880474890F90000002804DB454890F936
:100E00000000002810DA424890F9000000EB800052
:100E1000404991F9001001EB4000414991F900105F
:100E2000401A404908800FE0394890F9000000EB73
:100E30008000384991F9001001EB4000384991F9E0
:100E40000010084437490880607B0490A07B039021
:100E5000E07B0290207C40B2059000E050E0607C96
:100E60000190294630A002F0B5FCFFF740FF314663
:100E700030A002F0AFFCFFF73AFF394630A002F095
:100E8000A9FCFFF734FF414630A002F0A3FCFFF7B6
:100E90002EFF2448B0F900102FA002F09BFCFFF7B2
:100EA00026FF1E48B0F900102EA002F093FCFFF7B9
:100EB0001EFF4A4659462EA002F08CFCFFF717FF92
:100EC00052462FA0069902F085FCFFF710FF30A0D4
:100ED000049902F07FFCFFF70AFF31A0039902F0AA
:100EE00079FCFFF704FF32A0029902F073FCFFF7D0
:100EF000FEFE33A0019A059902F06CFCFFF7F7FEA5
:100F000007B0BDE8F08F0000220000202000002084
:100F100023000020210000201E0000201A000020D5
:100F20001F0000201C0000206A312E76616C3D25D8
:100F3000750000006A322E76616C3D257500000058
:100F40006A332E76616C3D25750000006A342E767A
:100F5000616C3D257500000074302E7478743D225C
:100F60002564220074312E7478743D222564220099
:100F700074322E7478743D2225642E25752200006B
:100F800074332E7478743D2225642E25752200005A
:100F90007431322E7478743D2225642200000000E2
:100FA0007431332E7478743D2225642200000000D1
:100FB0007431352E7478743D2225752200000000AE
:100FC0007431372E7478743D2225642E25752200E5
:100FD00000B58BB053480090534801900020029018
:100FE000042003900020049080200590400006908B
:100FF00080000790202008900002099000200A90AD
:1010000069464A4802F05CFB0121484802F083FB34
:101010000BB000BD00B587B00F20ADF80400002074
:101020008DF8070001A9424800F0F6F94FF440603E
:10103000ADF8040001208DF8060048208DF8070067
:1010400001A93C4800F0E8F901224FF44061394819
:1010500000F093FA0020029001208DF80C008DF82A
:101060000D004FF4602004900020059004208DF8BE
:10107000180002A92B484C3802F07FF80523012202
:10108000002128484C3802F010F9052302220121E2
:1010900024484C3802F009F9052303220221214893
:1010A0004C3802F002F90523042203211D484C3874
:1010B00002F0FBF84FF4004000F0D2FD0121194886
:1010C0004C3802F086F8012116484C3802F08CF8B2
:1010D00014484C3802F09FF800BF12484C3802F018
:1010E0009FF80028F9D10F484C3802F0A3F800BF50
:1010F0000C484C3802F0A3F80028F9D10121094826
:101100004C3802F0A6F807B000BD10B54FF480616E
:10111000084800F014FA4FF40061064800F00FFA96
:1011200010BD00004C2401402400002008000240B3
:1011300000080140000C01400CB500200190009017
:101140006C48006840F480306A49086000BF694814
:10115000006800F4003000900198401C0190009855
:1011600018B90198B0F5A06FF1D16248006800F499
:10117000003010B10120009001E0002000900098A4
:10118000012843D15C48006840F010005A490860CB
:101190000846006820F0030008600846006840F038
:1011A0000200086053484068524948600846406859
:1011B00048600846406840F48060486008464068DF
:1011C00020F47C1048600846406840F4E81048600D
:1011D0000846006840F08070086000BF454800681D
:1011E00000F000700028F9D04248406820F0030069
:1011F000404948600846406840F00200486000BF2F
:101200003C48406800F00C000828F9D10CBD10B52E
:10121000FFF792FF10BD10B53648006840F001009E
:1012200034490860084640683449084031494860FC
:1012300008460068324908402E49086008460068A0
:1012400020F4802008600846406820F4FE004860D2
:101250004FF41F008860FFF7DAFF4FF00060294964
:10126000086010BD10B5002100200022214B5B68F2
:1012700003F00C0121B1042906D0082928D107E088
:10128000214B224C236027E01F4B204C236023E09E
:10129000184B5B6803F47010164B5B6803F48032E4
:1012A000022303EB904022B9194B4343174C2360B0
:1012B0000DE0104B5B6803F4003323B1144B434340
:1012C000124C236003E0104B4343104C236003E0B7
:1012D0000D4B0E4C236000BF00BF064B5B68C3F391
:1012E00003130C4CE15C094B1B68CB40074C23609B
:1012F00010BD000000100240002002400000FFF876
:10130000FFFFF6FE08ED00E000127A002C0000203E
:1013100000093D0030000020094880470948004787
:10132000FEE7FEE7FEE7FEE7FEE7FEE7FEE7FEE795
:10133000FEE7FEE704480549054A064B70470000F2
:1013400017120008ED000008B8000020B8060020C1
:10135000B8020020B802002010B50446CC488442F0
:1013600008D10121042000F031FD0021042000F00B
:101370002DFD46E0C748844208D10121082000F035
:1013800025FD0021082000F021FD3AE0C2488442FA
:1013900008D10121102000F019FD0021102000F0DB
:1013A00015FD2EE0BD48844208D10121202000F027
:1013B0000DFD0021202000F009FD22E0B848844204
:1013C00008D10121402000F001FD0021402000F063
:1013D000FDFC16E0B348844208D10121802000F0D2
:1013E000F5FC0021802000F0F1FC0AE0AE488442C8
:1013F00007D10121801500F0E9FC0021A01500F0C3
:10140000E5FC10BD10B50121084600F0DFFC00210D
:10141000012000F0DBFC10BD2DE9F0410246002563
:101420000026002000230024002791F803C00CF0C0
:101430000F0591F803C00CF0100CBCF1000F03D0A5
:1014400091F802C04CEA050591F800C0BCF1000F0C
:1014500031D0146800202BE04FF0010C0CFA00F39F
:10146000B1F800C00CEA03069E4220D183004FF081
:101470000F0C0CFA03F7BC4305FA03FC4CEA040416
:1014800091F803C0BCF1280F06D14FF0010C0CFA03
:1014900000FCC2F814C00AE091F803C0BCF1480F88
:1014A00005D14FF0010C0CFA00FCC2F810C0401C32
:1014B0000828D1D31460B1F800C0BCF1FF0F34DDAF
:1014C000546800202EE000F1080C4FF0010808FAE3
:1014D0000CF3B1F800C00CEA03069E4221D1830050
:1014E0004FF00F0C0CFA03F7BC4305FA03FC4CEA6F
:1014F000040491F803C0BCF1280F05D100F1080CD9
:1015000008FA0CF8C2F8148091F803C0BCF1480F37
:1015100007D100F1080C4FF0010808FA0CF8C2F8E6
:101520001080401C0828CED35460BDE8F0814FF6EF
:10153000FF710180022181700421C1707047024651
:10154000002093680B400BB1012000E000207047A1
:101550000146886880B2704702460020D3680B407D
:101560000BB1012000E0002070470146C86880B23E
:10157000704701617047416170470AB1016100E045
:1015800041617047C16070474FF480320A43826105
:101590008161826182698269704702460020434B03
:1015A00018684FF68073184040EA021008433F4B1A
:1015B000186070473E49C8617047F0B50A4600237D
:1015C00000240021002500F00046B6F1004F02D1B2
:1015D000364EF16901E0354E7168C0F3034583B2C0
:1015E00000F44016B6F5401F08D121F070612F4E6F
:1015F000766826F070662D4F7E6012E000F480164B
:10160000B6F5801F06D1032606FA05F4A14341F082
:10161000706106E0460D360103FA06F6B14341F06B
:10162000706122B1460D360103FA06F6314300F02F
:101630000046B6F1004F02D11C4EF16101E01B4E95
:101640007160F0BD30B500228B071C0F0F2303FA29
:1016500004F2164B08338C1053F824309343134C88
:1016600008348D1044F8253023468C1053F824306C
:101670008C07240F00FA04F423430C4C08348D101B
:1016800044F8253030BD0A49DC310860704700005D
:1016900000080140000C014000100140001401400E
:1016A00000180140001C01400020014000000140E2
:1016B0000000204210B50446FB48844209D10121B4
:1016C000880300F083FB00214FF4804000F07EFB94
:1016D00032E0F648844209D10121480400F083FB3E
:1016E00000214FF4003000F07EFB25E0F0488442FA
:1016F00009D10121880400F076FB00214FF48020FD
:1017000000F071FB18E0EB48844209D10121C804C4
:1017100000F069FB00214FF4002000F064FB0BE0B7
:10172000E548844208D10121080500F05CFB002156
:101730004FF4801000F057FB10BD2DE9F04786B044
:1017400005460E460024A24600BFA1460027B089E8
:1017500000B100BF2F462C8A4CF6FF700440F08881
:1017600004432C82AC894EF6F3100440B0883189D2
:101770000843718908430443AC81AC8A4FF6FF40AB
:101780000440B0890443AC8201A800F098FAC6482E
:10179000874202D1DDF810A001E0DDF80CA0A88995
:1017A00000F4004040B10AEBCA0000EB0A103168B7
:1017B0004900B0FBF1F807E00AEBCA0000EB0A10A1
:1017C00031688900B0FBF1F86420B8FBF0F0040147
:1017D0002009642101FB1089A88900F4004040B170
:1017E000322000EBC900B0FBF1F000F00700044329
:1017F00008E0322000EB09106421B0FBF1F000F0AA
:101800000F0004432C8106B0BDE8F0874FF4165159
:10181000016000218180C18001810C214181002172
:101820008181704710B502460020108A4FF2FF03F5
:1018300018400B884C8823438C882343CC8823434F
:101840001843108210BD0021018041808180C18039
:10185000704721B1828942F40052828104E082897A
:101860004DF6FF731A4082817047F0B5034600249D
:1018700000260025002040F66A17B94200D100BFBB
:101880001846C1F3421401F01F06012707FA06F5B6
:10189000012C01D10C3004E0022C01D1103000E009
:1018A00014301AB107682F43076002E00768AF439E
:1018B0000760F0BD1AB1838A0B43838202E0838AFA
:1018C0008B4383827047028A4FF6F0731A4002827C
:1018D000028A0A430282704782894FF2FF731A40DC
:1018E000828182890A438281704721B1828942F0D4
:1018F0000202828104E082894FF6FD731A408281E0
:101900007047028A4FF6DF731A400282028A0A4346
:101910000282704721B1028A42F48042028204E0CE
:10192000028A4BF6FF731A4002827047C1F3080225
:101930008280704701468888C0F30800704781891B
:1019400041F0010181817047028BD2B20283028B88
:1019500042EA012202837047028B02F47F42028333
:10196000028B0A430283704721B1828A42F020022F
:10197000828204E0828A4FF6DF731A4082827047C7
:1019800021B1828A42F01002828204E0828A4FF6FC
:10199000EF731A408282704721B1828A42F00802B6
:1019A000828204E0828A4FF6F7731A40828270477F
:1019B00021B1828942F40042828103E08289C2F32C
:1019C0000E028281704721B1828A42F400628282D3
:1019D00004E0828A4FF2FF731A4082827047828A43
:1019E0004FF6FB731A408282828A0A4382827047D2
:1019F00021B1828A42F00202828204E0828A4FF69A
:101A0000FD731A408282704702460020B1F5007FC4
:101A100000D100BF13880B400BB1012000E0002073
:101A2000704701F40072B2F5007F00D100BFCA43D5
:101A30000280704770B50246002400230025002074
:101A400040F66A16B14200D100BFC1F3421501F061
:101A50001F03012606FA03F3012D02D196893340B4
:101A600006E0022D02D1168A334001E0968A334007
:101A70000C12012606FA04F41688344013B10CB196
:101A8000012000E0002070BD10B50022002340F6C8
:101A90006A14A14200D100BF0A1201249440A3B2EB
:101AA000DC43048010BD00000038014000440040C9
:101AB00000480040004C004000500040DF480068F3
:101AC00040F00100DD49086008464068DC490840F4
:101AD000DA49486008460068DA490840D749086092
:101AE0000846006820F4802008600846406820F41A
:101AF000FE0048604FF41F0088607047CF490968B6
:101B000021F48031CD4A11601146096821F4802109
:101B10001160B0F5803F03D0B0F5802F0ED106E004
:101B2000C649096841F48031C44A116007E0C349DD
:101B3000096841F4A021C14A116000E000BF00BF64
:101B4000704710B501460022002300204A11012AE7
:101B500002D1BA4C236806E0022A02D1B74C236AAC
:101B600001E0B64C636A01F01F02012494401C405E
:101B70000CB1012000E0002010BD38B5002000901D
:101B80000024002500BF3120FFF7DBFF0546009849
:101B9000401C00900098B0F5A06F01D0002DF2D04D
:101BA0003120FFF7CEFF08B1012400E000242046D9
:101BB00038BD01460020A14A106820F0F80040EA34
:101BC000C10010607047A0490860704702460020BD
:101BD0009A4B586820F47C1042EA01031843974B53
:101BE0005860704798490866704701460020934A3C
:101BF000506820F003000843506070478F484068E9
:101C000000F00C007047014600208C4A506820F01C
:101C1000F00008435060704701460020874A506832
:101C200020F4E06008435060704701460020834A7A
:101C3000506820F4605040EAC1005060704729B1FC
:101C40007E4A527A02437D4B5A7204E07B4A527AB2
:101C500082437A4B5A7270477B49D831086070478B
:101C600001460020754A506820F440400843506007
:101C700070470021714A20321170704A82F820109A
:101C8000012802D004280AD104E001216B4A203245
:101C9000117005E00521694A2032117000E000BF93
:101CA00000BF70476949086070476449096A014389
:101CB000624A11627047654944390860704730B51F
:101CC00000210022002400235C4D6D6805F00C010A
:101CD00021B1042905D0082923D105E05C4D056018
:101CE00022E05B4D05601FE0544D6D6805F47012F5
:101CF000524D6D6805F48034022505EB92421CB903
:101D0000544D554305600BE04C4D6D6805F40035AE
:101D10001DB1504D5543056002E04D4D55430560E2
:101D200002E04B4D056000BF00BF444D6D6805F0FB
:101D3000F0010909484D6B5C0568DD4045603F4D89
:101D40006D6805F4E061090A434D6B5C4568DD4050
:101D500085603A4D6D6805F46051C90A3E4D6B5C73
:101D60004568DD40C560354D6D6805F44041890B1F
:101D70003A4D6B5CC568B5FBF3F5056130BD29B123
:101D80002E4A526902432D4B5A6104E02B4A526994
:101D900082432A4B5A61704729B1284A926902430B
:101DA000264B9A6104E0254A92698243234B9A614B
:101DB000704729B1214AD2690243204BDA6104E01D
:101DC0001E4AD26982431D4BDA61704729B11B4A12
:101DD000D2680243194BDA6004E0184AD2688243A1
:101DE000164BDA60704729B1144A12690243134B4B
:101DF0001A6104E0114A12698243104B1A6170475C
:101E000012494039086070470F49C86470470B4950
:101E1000C87170470948406A40F0807007494862BD
:101E2000704701460020054A92680A400AB1012025
:101E300000E000207047014988727047001002409E
:101E40000000FFF8FFFFF6FE00004242800442421D
:101E500000127A0000093D004000002050000020E0
:101E60000E49086070470D49486070470B4988600B
:101E700070474AF6AA200949086070474CF6CC40E2
:101E800006490860704701460020044AD2680A40AB
:101E90000AB1012000E0002070470000003000403F
:101EA00010B50121C802FFF79EFF00214FF400602A
:101EB000FFF799FF10BD0021194A126822F4C07182
:101EC0000143174A1160704708B500210091144979
:101ED000096821F07F01009100F07F01009A114311
:101EE00000910F4A0099116008BD01200D4908605A
:101EF000704700F07F010A4A121F1160704740F0DE
:101F00008001074A121F116070470548001D0068D4
:101F1000C0B2704700200249091D086070470000E8
:101F2000042C0040A480054231490143314A11602C
:101F3000704770B5002100230F22C47804B32D4CE4
:101F4000246804F4E064C4F5E064210AC1F10403E8
:101F5000CA40447804FA03F184781440214309010B
:101F6000254C0678A155047804F01F050124AC40E7
:101F700005786D11AD0005F1E025C5F8004109E0D7
:101F8000047804F01F050124AC401C4D067876113E
:101F900045F8264070BD1A4A0A400243154B1B1FE4
:101FA0001A60704739B1134A121D12680243114B6F
:101FB0001B1D1A6006E00F4A121D126882430D4B6A
:101FC0001B1D1A607047042808D14FF0E0210969F1
:101FD00041F004014FF0E022116107E04FF0E021F1
:101FE000096921F004014FF0E022116170470000FF
:101FF0000000FA050CED00E000E400E080E100E004
:1020000080FFFF1F10B50446FE48844208D101211D
:10201000C014FFF7DBFE0021E014FFF7D7FEC4E099
:10202000B4F1804F08D101210846FFF7DCFE002102
:102030000120FFF7D8FEB8E0F348844208D101211F
:102040000220FFF7D0FE00210220FFF7CCFEACE01B
:10205000EE48844208D101210420FFF7C4FE00218C
:102060000420FFF7C0FEA0E0E948844208D1012126
:102070000820FFF7B8FE00210820FFF7B4FE94E027
:10208000E448844208D101211020FFF7ACFE002172
:102090001020FFF7A8FE88E0DF48844208D1012124
:1020A0002020FFF7A0FE00212020FFF79CFE7CE00F
:1020B000DA48844208D101214014FFF787FE00214D
:1020C0006014FFF783FE70E0D548844209D10121F6
:1020D000C804FFF77BFE00214FF40020FFF776FED7
:1020E00063E0D048844209D101210805FFF76EFE64
:1020F00000214FF48010FFF769FE56E0CA48844281
:1021000009D101214805FFF761FE00214FF40010BD
:10211000FFF75CFE49E0C548844208D10121402018
:10212000FFF761FE00214020FFF75DFE3DE0C04863
:10213000844208D101218020FFF755FE0021802034
:10214000FFF751FE31E0BB48844208D101218015E0
:10215000FFF749FE0021A015FFF745FE25E0B64830
:10216000844209D101210804FFF730FE00214FF419
:102170008030FFF72BFE18E0B048844209D10121DE
:102180004804FFF723FE00214FF40030FFF71EFE46
:102190000BE0AB48844208D101218804FFF716FE0A
:1021A00000214FF48020FFF711FE10BD00220288AD
:1021B000944B98420ED0994B98420BD0B0F1804F7F
:1021C00008D0914B984205D0904B984202D0904B4A
:1021D000984204D14FF68F731A404B881A438D4BA7
:1021E000984207D08C4B984204D04FF6FF431A40D8
:1021F000CB881A4302808B8883850B880385814BAB
:1022000098420BD0854B984208D08B4B984205D012
:102210008A4B984202D08A4B984201D10B7A0386AE
:1022200001238382704770B5002400220023058CAF
:102230004FF6FE7635400584028C8388048B4FF67A
:102240008F752C40B51E2C400D882C43751E2A40DE
:102250000D892A434D882A436A4DA8420BD06F4D01
:10226000A84208D0744DA84205D0744DA84202D0AF
:10227000734DA84213D14FF6F7752A404D892A4372
:102280004FF6FB752A408D882A434FF6FF652B4099
:102290004FF6FF552B408D892B43CD892B438380EF
:1022A0000483CD888586028470BD70B50024002229
:1022B0000023058C4FF6EF7635400584028C838829
:1022C000048B48F6FF752C404FF6FF452C400D88D7
:1022D0004FF6FF7606EA05252C434FF6DF752A40B8
:1022E0000D8906EA05152A434D8806EA05152A4395
:1022F000444DA84202D0494DA8421DD14FF67F75EA
:102300002A404D894FF6FF7606EA05152A434FF617
:10231000BF752A408D8806EA05152A434FF6FF351A
:102320002B404FF2FF752B408D8906EA85052B4324
:10233000CD8906EA85052B4383800483CD880587F4
:10234000028470BD70B5002400220023058C4FF676
:10235000FF6635400584028C8388848B4FF68F7529
:102360002C404FF6FC752C400D882C434FF6FF5542
:102370002A400D894FF6FF7606EA05252A434D8847
:1023800006EA05252A431F4DA84202D0234DA84244
:102390001DD14FF2FF752A404D894FF6FF7606EAB0
:1023A00005252A434FF6FF352A408D8806EA052584
:1023B0002A434EF6FF752B404DF6FF752B408D8955
:1023C00006EA05152B43CD8906EA05152B438380C4
:1023D0008483CD888587028470BD70B50022002378
:1023E0000024058C4EF6FF7635400584038C8488E6
:1023F000828B48F6FF752A404FF6FF452A400D882C
:1024000020E00000002C01400004004000080040D3
:10241000000C004000100040001400400034014057
:10242000004C0140005001400054014000180040A1
:10243000001C0040002000400040014000440140DA
:10244000004801404FF6FF7606EA05252A434DF67F
:10245000FF752B400D8906EA05352B434D8806EAAA
:1024600005352B43FA4DA84202D0FA4DA84208D1B7
:102470004BF6FF752C408D894FF6FF7606EA8515E1
:102480002C4384808283CD88A0F84050038470BDA3
:10249000828B4FF2FF331A408283828B4FF6FF7399
:1024A00003EA01231A4382837047F0B50C461546B0
:1024B000002200210026078C4EF6FF7C07EA0C075D
:1024C0000784828B018C4FF6FF7707EA043640F6CB
:1024D000FF473A404FF6FF7707EA05273A434FF6A2
:1024E000FF7707EA03373A43D94FB8420ED0D94FA6
:1024F000B8420BD0B0F1804F08D0D74FB84205D0CA
:10250000D64FB84202D0D64FB84206D14DF6FF772B
:10251000394046F48057394305E047F6FF573940C4
:1025200044F48057394382830184F0BD828B4FF697
:10253000F3731A408283828B0A4382837047F0B51B
:102540000C461546002200210026078C4FF6FF6C32
:1025500007EA0C070784828B018C4FF6FF7707EAA6
:1025600004264FF60C773A404FF6FF7707EA031739
:102570002F433A43B64FB8420ED0B64FB8420BD0B5
:10258000B0F1804F08D0B44FB84205D0B34FB84235
:1025900002D0B34FB84206D14FF6FF57394046F448
:1025A0008077394305E04FF2FF57394044F4807794
:1025B000394382830184F0BD028B4FF2FF331A400E
:1025C0000283028B4FF6FF7303EA01231A4302834F
:1025D0007047F0B50C461546002200210026078CF6
:1025E0004FF6EF7C07EA0C070784028B018C4FF64D
:1025F000FF7707EA041640F6FF473A404FF6FF77A9
:1026000007EA03373A434FF6FF7707EA05273A43CD
:102610008F4FB8420ED08F4FB8420BD0B0F1804FE1
:1026200008D08D4FB84205D08C4FB84202D08C4FA5
:10263000B84206D14FF6DF77394046F010073943EC
:1026400005E04FF65F77394044F0100739430283C5
:102650000184F0BD028B4FF6F3731A400283028BA4
:102660000A4302837047F0B50C461546002200214C
:10267000068C4FF6FE773E400684028B018C4FF6A7
:102680000C7632407E1C06EA03162E433243704E0F
:10269000B0420ED06F4EB0420BD0B0F1804F08D098
:1026A0006D4EB04205D06D4EB04202D06C4EB0427D
:1026B00006D14FF6FD76314044F00106314305E086
:1026C0004FF6F576314044F0010631430283018430
:1026D000F0BD70B505460C465D4885420ED05D489C
:1026E00085420BD0B5F1804F08D05B48854205D0BC
:1026F0005A48854202D05A48854200D100E000BFC6
:10270000208850B92389A28861882846FFF7ABFF4B
:10271000E1882846FFF79EFF25E0208804280AD19B
:102720002389A28861882846FFF753FFE18828465D
:10273000FFF742FF17E0208808280AD12389A288E2
:1027400061882846FFF7FBFEE1882846FFF7EEFE8A
:1027500009E02389A28861882846FFF7A6FEE18860
:102760002846FFF795FE70BD2DE9F04105460C4661
:1027700000260127608808B9022600E00026A0880C
:10278000012801D1022700E001272088A0B9238970
:10279000A28861882846FFF766FFE1882846FFF790
:1027A00059FF23893A4631462846FFF712FFE18850
:1027B0002846FFF701FF13E02389A2886188284695
:1027C000FFF707FFE1882846FFF7F6FE23893A4620
:1027D00031462846FFF747FFE1882846FFF73AFFD2
:1027E000BDE8F0810A884B881A438B881A43CB884E
:1027F0001A430B891A434B891A438B891A43A0F851
:10280000442070474FF6FF71818000210180C18014
:102810004180017270470021018041808180C18028
:10282000018141818181C181704700210180418006
:10283000012181800021C180018170470021018038
:1028400041808180C1800181418181817047000088
:10285000002C01400034014000040040000800400A
:10286000000C004021B1028842F00102028004E025
:1028700002884FF6FE731A400280704731B1B0F8FB
:10288000442042F40042A0F8442005E0B0F844207F
:10289000C2F30E02A0F8442070471AB183890B439B
:1028A000838102E083898B438381704781827047F3
:1028B00041EA0203A0F8483070471AB183890B43FC
:1028C000838102E083898B438381704701894FF6BE
:1028D000F8721140018170470A46002101894FF6C4
:1028E0008F73194011430181704730B504460D467E
:1028F00029462046FFF7F0FF208940F0070020819D
:1029000030BD2DE9F04104460D4616461F46602DA8
:1029100006D13B46012231462046FFF75AFE05E02C
:102920003B46012231462046FFF79DFE29462046C0
:10293000FFF7D2FF208940F007002081BDE8F08139
:1029400030B50C4600210189C9B24FF6FF7505EA82
:102950000325154325432943018130BD2DE9F0416D
:1029600005460E4617469846002443463A463146E9
:102970002846FFF7E5FF2C894FF6F870044044F035
:1029800007044FF68F70044044F070042C81BDE8BA
:10299000F081F0B504460D4616461F463B463246CA
:1029A00029462046FFF7CCFF208940F48040208153
:1029B000F0BD0185828270470A46002101884FF6EA
:1029C0008F731940114301807047F0B50C461546CE
:1029D0001E460021002200230189028B038C4FF642
:1029E000F877394021434FF6FC473A4040F201174F
:1029F0003A434FF6DD773B404FF6FF7707EA06177D
:102A00002F433B43018102830384F0BD0A4600212A
:102A1000018B4FF68F7319401143018370470A46AB
:102A20000021018B48F6FF7319404FF6FF7303EA4C
:102A300002231943018370470A460021818B4FF618
:102A40008F7319401143818370470A460021818B9F
:102A500048F6FF7319404FF6FF7303EA0223194348
:102A60008183704721B1028842F08002028004E035
:102A700002884FF67F731A400280704721B1828826
:102A800042F00402828004E082884FF6FB731A4011
:102A90008280704721B1828842F00802828004E07F
:102AA00082884FF6F7731A408280704721B182887E
:102AB00042F00102828004E082884FF6FE731A40E1
:102AC000828070470A460021018B4FF6F773194048
:102AD0001143018370470A460021018B4FF2FF73B7
:102AE00019404FF6FF7303EA02231943018370472D
:102AF0000A460021818B4FF6F773194011438183F9
:102B000070470A460021818B4FF2FF7319404FF640
:102B1000FF7303EA02231943818370470A460021A9
:102B2000018B4FF6FB7319401143018370470A462E
:102B30000021018B4FF6FF3319404FF6FF7303EA74
:102B400002231943018370470A460021818B4FF607
:102B5000FB7319401143818370470A460021818B22
:102B60004FF6FF3319404FF6FF7303EA0223194370
:102B7000818370470A460021018B4FF67F7319400D
:102B80001143018370470A460021018BC1F30E01F6
:102B90004FF6FF7303EA02231943018370470A4685
:102BA0000021818B4FF67F73194011438183704759
:102BB0000A460021818BC1F30E014FF6FF7303EA31
:102BC00002231943818370470A460021018C4FF686
:102BD000FD7319401143018470470A460021018C9E
:102BE0004FF6F77319401143018470470A460021DC
:102BF000018C4FF6DF7319404FF6FF7303EA02139F
:102C00001943018470470A460021018C4FF67F73F7
:102C100019404FF6FF7303EA02131943018470470A
:102C20000A460021018C4FF6FF5319404FF6FF73FF
:102C300003EA02231943018470470A460021018CEC
:102C40004FF2FF7319404FF6FF7303EA0223194353
:102C5000018470470A460021018C4DF6FF7319402C
:102C60004FF6FF7303EA023319430184704730B50E
:102C7000002301248C40A3B2048C9C430484048C64
:102C800002FA01F5ADB22C43048430BD30B5002307
:102C900004248C40A3B2048C9C430484048C02FA68
:102CA00001F5ADB22C43048430BD70B5034600205D
:102CB00000241846183001258D40ACB21D8CA54368
:102CC0001D8409B1082909D100EB6100056825F0D0
:102CD000700505600568154305600EE00D1FC5F31E
:102CE0004E052844056825F4E045056005684FF663
:102CF000FF7606EA02263543056070BD21B10288E1
:102D000042F00202028004E002884FF6FD731A408E
:102D10000280704721B1028842F00402028004E080
:102D200002884FF6FB731A400280704721B18288F7
:102D300042F08002828004E082884FF67F731A405E
:102D40008280704702884FF6F7731A40028002882B
:102D50000A430280704782884FF68F731A40828040
:102D600082880A438280704702894FF6F8731A40BE
:102D7000028102890A430281704702894FF67F73FC
:102D80001A40028102890A43028170478184704798
:102D900081857047818670470187704781877047BA
:102DA000A0F84010704702884FF6FF431A40028097
:102DB00002880A43028070470146888E70470146A8
:102DC000088F70470146888F70470146B1F8400070
:102DD00070470146888C70470146088D704702464F
:102DE0000020138A0B400BB1012000E00020704747
:102DF000CA430282704730B50246002000230024F7
:102E0000158A05EA0103958905EA010413B10CB19D
:102E1000012000E0002030BDCA430282704700005C
:102E200010B50446BE48844208D101218014FEF743
:102E3000CDFF0021A014FEF7C9FF16E0B948844277
:102E400008D101210014FEF7CEFF00212014FEF767
:102E5000CAFF0AE0B448844207D10121C013FEF73B
:102E6000C2FF0021E013FEF7BEFF10BD10B5002227
:102E7000028802F441520B884C8823438C882343F8
:102E8000CC8823430C8923434C8923438C892343D7
:102E9000CC8923431A430280838B4FF2FF74234073
:102EA00083830B8A038210BD2DE9F04F85B0054660
:102EB0000C464FF0000902274FF000084FF0010BBD
:102EC0000026B246A88B4FF240010840A88302209A
:102ED0002884B5F81C90A068022801D100BF38E012
:102EE000A08810B94FF0010B01E04FF0020B8D48A4
:102EF000854200D100E000BF6846FEF7E0FEDDF845
:102F000000A0E088B0F5007F0AD14FEA1A2000EB5C
:102F100080004000A168B0FBF1F0401D86B20BE0DC
:102F20004FEA4B10BAFBF0F000EB80004000A168C4
:102F3000B0FBF1F0401D86B20A20B6FBF0F606F0B9
:102F40000108A6EB0800C0F34F074FF6FF7000EA38
:102F50000828022F01DBFF2F02DD02274FF00008B7
:102F6000E08840EA080038432884A088A189084303
:102F7000618808432188084340F4006040EA090959
:102F8000A5F81C9005B0BDE8F08F002101804180BC
:102F90008180C180018141818181C18107210182BC
:102FA00070470021018041808180C18002218160C1
:102FB00000218181704721B1028842F040020280E5
:102FC00004E002884FF6BF731A400280704721B1B7
:102FD000828B42F48062828304E0828B4FF6FF335F
:102FE0001A408283704730B5002400230C1101255C
:102FF000A540ABB21AB185881D43858002E0858863
:103000009D43858030BD1AB183880B43838002E0E5
:1030100083888B438380704781817047014688890C
:1030200070474FF6FF62914204D0028842F48072EA
:10303000028004E002884FF6FF631A400280704766
:1030400021B1828842F00402828004E082884FF637
:10305000FB731A408280704702884FF2FF731A4058
:10306000028002880A4302807047018841F480513F
:103070000180704721B1028842F40052028004E0CE
:1030800002884DF6FF731A40028070470246002006
:10309000012901D0108B00E0908A70470146088A10
:1030A0007047B1F5804F04D1028842F4804202801B
:1030B00004E002884BF6FF731A4002807047024614
:1030C000002013890B400BB1012000E00020704765
:1030D000CA4302817047F0B5024600200024002355
:1030E000002501F00F070126BE40B4B20B110126E6
:1030F0009E40B3B2968806EA03051689264016B1AB
:103100000DB1012000E00020F0BD10B5002201F05B
:103110000F040123A3409AB2D343038110BD0000E2
:103120000030014000380040003C004010B504462B
:10313000FA48844208D101214015FEF747FE0021DC
:103140006015FEF743FE17E0F548844208D10121DF
:103150000015FEF73BFE00212015FEF737FE0BE0C1
:10316000F048844208D10121C803FEF72FFE002158
:103170004FF40040FEF72AFE10BD30B50246002095
:1031800000235068E84C20400D790C6844EA05247F
:10319000204350609068E54C2040D1E902542C4314
:1031A0004D7944EA450420439060D06A20F47000D1
:1031B0000C7C641EE4B2234340EA0350D06230BD6D
:1031C00000210160017141718160C16001210174C0
:1031D000704721B1826842F00102826003E0826898
:1031E00022F001028260704721B1826842F480724D
:1031F000826003E0826822F480728260704710B5BA
:103200000023CBB21AB144681C43446002E0446816
:103210009C43446010BD816841F0080181607047A3
:10322000014600208A6802F008020AB1012000E08D
:1032300000207047816841F00401816070470146B9
:1032400000208A6802F004020AB1012000E0002098
:10325000704721B1826842F4A002826003E0826874
:1032600022F4A00282607047014600208A6802F4BE
:1032700080020AB1012000E00020704710B50A4624
:1032800000210023416821F46041531E41EA43318B
:10329000416010BD21B1426842F40062426003E027
:1032A000426822F4006242607047F0B504460D4661
:1032B00000200021092D11DDE068A5F10A0606EBCA
:1032C0004607072606FA07F18843A5F10A0606EB2A
:1032D000460603FA06F10843E0600CE0206905EBBE
:1032E0004507072606FA07F1884305EB450603FA6A
:1032F00006F108432061072A0FDA606B561E06EBC1
:1033000086071F2606FA07F18843561E06EB860637
:1033100005FA06F10843606322E00D2A0FDA206BFC
:10332000D61F06EB86071F2606FA07F18843D61F2D
:1033300006EB860605FA06F10843206310E0E06A12
:10334000A2F10D0606EB86071F2606FA07F1884351
:10335000A2F10D0606EB860605FA06F10843E062C7
:10336000F0BD21B1826842F48012826003E082687D
:1033700022F48012826070470146C86C80B27047A8
:1033800066484C300068704721B1426842F4806260
:10339000426003E0426822F480624260704721B1DB
:1033A000426842F48052426003E0426822F4805254
:1033B000426070470A460021816821F4E0411143D0
:1033C0008160704721B1826842F40042826003E06C
:1033D000826822F400428260704721B1826842F420
:1033E0000212826003E0826822F402128260704757
:1033F000014600208A6802F400120AB1012000E0B0
:1034000000207047F0B50446154600200022002633
:10341000092911DDE068A1F10A0707EB470C07272E
:1034200007FA0CF29043A1F10A0707EB470703FAEA
:1034300007F21043E0600CE0206901EB410C072724
:1034400007FA0CF2904301EB410703FA07F210432D
:103450002061A06BC0F30156EF1C06F1010CA7EB35
:103460000C0707EB870C1F2707FA0CF29043EF1CA1
:1034700006F1010CA7EB0C0707EB870701FA07F22F
:103480001043A063F0BD10B50A4600210023816BF4
:1034900021F44011531E41EA0351816310BD08B568
:1034A000002300930090009B0B440093009B1A6044
:1034B00008BD08B5024600200090009201F12800E6
:1034C000009B184400900098006880B208BD0A462E
:1034D00000214168164B1940114341607047416219
:1034E000826270470A460021416821F01F011143A2
:1034F0004160704740B109490831096841F4000151
:10350000064A0832116007E004490831096821F4CD
:103510000001024A08321160704700000024014097
:1035200000280140003C0140FFFEF0FFFDF7F1FFE5
:10353000FFFD3FFF0246002013680B400BB1012046
:1035400000E000207047CA430260704770B5024631
:103550000020002300240B125568CEB205EA0604B1
:1035600015681D4015B10CB1012000E0002070BDB0
:1035700000220A12D34303607047000001684FF62F
:10358000FE72114001600021016041608160C160F4
:103590008D49884208D18C490839496841F00F01AA
:1035A000894A083A51608AE087491431884208D133
:1035B00085490839496841F0F001834A083A516069
:1035C0007DE081492831884208D17F49083949681E
:1035D00041F470617C4A083A516070E07A493C31AC
:1035E000884208D178490839496841F47041764ADF
:1035F000083A516063E074495031884208D17249F9
:103600000839496841F470216F4A083A516056E020
:103610006D496431884208D16B490839496841F4E1
:103620007001694A083A516049E067497831884237
:1036300008D165490839496841F07061624A083A21
:1036400051603CE06149884206D1011F096841F0A0
:103650000F01021F116032E05C491431884208D129
:103660005A49091F096841F0F001584A121F1160B8
:1036700025E056492831884208D15449091F096874
:1036800041F47061514A121F116018E04F493C31FA
:10369000884208D14D49091F096841F470414B4ADD
:1036A000121F11600BE049495031884207D1474948
:1036B000091F096841F47021444A121F11607047C4
:1036C00010B50022026847F6F0739A430C6A8B68C3
:1036D00023430C6923434C6923438C692343CC69FE
:1036E00023434C6A23438C6A23431A430260CB680A
:1036F00043600B6883604B68C36010BD00210160AC
:1037000041608160C160016141618161C1610162AB
:1037100041628162704721B1026842F00102026099
:1037200004E002684FF6FE731A40026070471AB157
:1037300003680B43036002E003688B430360704738
:10374000416070470146486880B2704701460020DA
:10375000002201F080531BB11C4B083B1A6802E0A9
:10376000194B083B1A6802EA01030BB1012000E083
:103770000020704700F0805119B11449091F0860FA
:1037800002E01149083948607047014600200022D4
:1037900001F080531BB10D4B083B1A6802E00A4B45
:1037A000083B1A6802EA01030BB1012000E0002087
:1037B000704700F0805119B10449091F086002E008
:1037C0000149083948607047080002400804024077
:1037D000704700000FB4044910B503AA029800F026
:1037E000D3F810BC5DF814FB000000202DE9F04177
:1037F0000E460446002020622046E168884730B328
:10380000252805D0D4E901219047206A401CF2E721
:10381000E168204600278847050018D0A5F141003F
:10382000192802D820354FF4006732462946204631
:103830002760FCF795FC40B1012804D0F61D26F066
:1038400007060836D8E7361DD6E72846DAE7206AA5
:10385000BDE8F0812DE9F041064600241068752985
:10386000314616A510D0AFF30080002802DA40429E
:1038700013A507E031688A0701D512A502E04907C0
:1038800004D511A5012401E0AFF3008000210A2234
:1038900006F1240709E0B0FBF2FCB0FBF2F302FBF7
:1038A0001C00303078541846491C0028F3D12346B8
:1038B0002A463046BDE8F04100F00CB80000000098
:1038C0002D0000002B000000200000007047704712
:1038D000704770472DE9F0470D46994692460446D9
:1038E00000F124080168880604D5E06921F0100180
:1038F000216000E00120A84201DD471B00E0002715
:10390000A1697A1902EB0900081AA0612078C006A3
:1039100002D42046AFF30080002608E0D4E901215C
:103920001AF806009047206A401C761C20624E451B
:10393000F4DB2078C0060AD52046AFF3008006E00D
:10394000D4E9012130209047206A401C2062381EB3
:10395000A7F10107F4DC07E0D4E9012118F805001C
:103960009047206A401C2062281EA5F10105F3DC67
:103970002046AFF300802078000602D50220BDE883
:10398000F0870120FBE70000074B70B50D467B4434
:1039900000F011F80446284600F020F810B14FF06E
:1039A000FF3070BD204670BD3DD3FFFF01694A1C4A
:1039B00002610878704700B58FB0CDE90131002170
:1039C000059105497944CDE9031011466846FFF792
:1039D0000DFF0FB000BD0000E5FFFFFF007B00F012
:1039E00080007047754600F029F8AE46050069462C
:1039F000534620F00700854618B020B5FDF79AFC25
:103A0000BDE820404FF000064FF000074FF00008DF
:103A10004FF0000B21F00701AC46ACE8C009ACE860
:103A2000C009ACE8C009ACE8C0098D46704704463F
:103A3000AFF300802046FCF7A8FB00000048704769
:103A40005400002090EA010F48BF81F0004100F1CE
:103A50006282421A3CBF801A89184FEAD0524FF056
:103A60007F4C1CEA410FA2EBD15318BF9CEA026FB6
:103A700000F03B804FF0004C4CEA00204CEA012162
:103A800021FA03FC10EB0C0C1ED202F1FF325FEAAC
:103A90001C2040EBC25038BF70471CF07F0F4FEA2C
:103AA000400C18BFBCF17F4F38BF7047C3F12003F3
:103AB000994008BF20F00100BCF17F4F38BF70472C
:103AC000A0F1C04000F011BA4FEA3C00000A40EB00
:103AD000C25028BF1CF0FF0F4FEA400CE6D018BFC1
:103AE000BCF17F4F38BF7047EAE79CEA026F05D010
:103AF00010EA5C0F08BF00F00040704710B500F0FE
:103B0000AEF900BF64FBBE3E4FF47F0C1CEAD0123E
:103B10001EBF1CEAD11392EA0C0F93EA0C0F00F0BF
:103B2000858090EA010F48BF42F4807240F4000C97
:103B300041F400002CF07F4120F07F4000B581422D
:103B4000A2EB03020FF2081CACEB504EC0F10000D8
:103B50009EF800E04FEA4E0E00FB0EFC38BF490015
:103B60004FEA2C1C02F5FA020CFB0EF34FEACE1EB4
:103B70004FEA112C4FEAC1210EEB635E42EB224269
:103B80000EFB0CFC4FEA1C5300FB03114FEA112CF7
:103B90004FEA01310EFB0CFC4FEADC4C00FB0C1130
:103BA000C14228BF09184CEB03335DF804EB10EB5E
:103BB000410143EBC250B2F57C0F38BF704729D5A5
:103BC00012F0F00F1CBF00F1C04000F00040704741
:103BD000008182838485868788898B8C8D8E8F91E6
:103BE0009293959697999A9C9D9FA0A2A3A5A7A80A
:103BF000AAACAEB0B2B3B5B7B9BCBEC0C2C5C7C936
:103C0000CCCED1D4D7D9DCDFE2E6E9ECF0F3F7FA99
:103C1000FE0000004FEA400C0CF1807CBCF17E4FAE
:103C200028BF7047B0F1C04000F05FB990EA010FC3
:103C30000CEAD11348BF42F48072624538BF634535
:103C400007D213F47F0F16D080EA010000F0004085
:103C5000704710B500F003F9097EFC3E00F005B88E
:103C600080EA010000F00040704780EA010000F0A7
:103C7000004000F03AB912F47F0F04BF02487047C9
:103C800080EA010000F031B90000C07F41000B0E56
:103C9000D3F19E0208D950F400034FEA032323FA1C
:103CA00002F048BF4042704710B500F0D8F800BF9E
:103CB00049922480002070476FF0004282EA200081
:103CC00070470000C10DD1F19E0206DB4FEA0023D0
:103CD00043F0004323FA02F07047004207D54FEA51
:103CE0004001B1F1FE4F02D24FF00000704710B515
:103CF00000F0B5F849922480002070476FEA200058
:103D00007047000010F0004148BF4042B0FA80F315
:103D100010FA03F2C3F19D030BD051EAC35101EB3A
:103D20001220530638BF704700F1010008BF20F091
:103D300001007047B0FA80F310FA03F2C3F19D035B
:103D40000AD0D90501EB1220530638BF704700F1A5
:103D5000010008BF20F00100704700004FF47F0C05
:103D60001CEAD0121EBF1CEAD11392EA0C0F93EA90
:103D70000C0F00F0478090EA010F48BF42F48072B8
:103D80004FF0004C4CEA00204CEA012102EB030208
:103D9000A0FB0113A2F50002002918BF43F00103A4
:103DA0005B0028BF4FEA330342EB22425FEA132C49
:103DB0004CEBC2502EBFBCEB436FB2F57C0F70478B
:103DC0004FEA036CBCF1004F08BF20F00100B2F5D0
:103DD0007C0F38BF70470BD582F0FF0212F5803F91
:103DE000C8BF704700F1C040D8BF00F00040704726
:103DF00000F5000C5FEA4C0C48BF7047B0F1C040C2
:103E000000F073B890EA010F0CEAD11348BF42F4F6
:103E10008072624538BF634504D280EA010000F039
:103E20000040704710B500F01AF800BF8900013E4D
:103E300000F007B800F009B85FEA410C5FEA1C6CBB
:103E400008D080EA010000F050B85FEA400C5FEA59
:103E50001C6CF6D14FF00040A0F5800070470EF1C9
:103E6000020E2EF0030E5EF8044B244204D44FEAF7
:103E70004102B2F17F4F11D84FEA4003B3F17F4FB7
:103E80000CD80ED14FEAD07CB2F17F4F0CEB4C0C2A
:103E90000CF1020C08BF4CEBD17C04E04FF0080C95
:103EA00001E04FEAD17C0CEB4C0324FA03F404F05C
:103EB0000704B4F1040C06D20EEB840CBDE81040EC
:103EC0004CF0010C6047DFE80CF0070802024FF0ED
:103ED0000040A0F5800010BD0846420018BFD2F196
:103EE000807288BF00F0004010BDFF2141EAD05031
:103EF000C005704780F0004090EA010F7FF5A9AD42
:103F000081F0004100F007B890EA010F48BF81F04E
:103F100000413FF59EAD421A04D882F00042A0EB6A
:103F2000020011444FEAD0524FF07F4C1CEA410F7F
:103F3000A2EBD15318BF9CEA026F4AD04FF0004C5D
:103F40004CEA00204CEA012121FA03FCB0EB0C0CF6
:103F50000FD412F0FE0F36D05FEA4C001DD50012D0
:103F600040EBC25038BF70471CF03F0F18BF70477E
:103F70000BE0A2F101025FEA1C2040EBC25038BF07
:103F800070471CF07F0F18BF7047C3F120039940A2
:103F900014BF401E20F00100704780084FEA122332
:103FA00008BF7047B0FA80FCA2EB0C02CCF1280CE1
:103FB00060FA0CF093EA122F04BF00EBC250704776
:103FC0004FEAC3707047130A5FEADC1008BF7047FE
:103FD000F6E79CEA026F04D010EA5C0F08BF0020ED
:103FE000704710B5FFF73BFF40DFF63E81F0004021
:103FF0007047344310100134431010021C40000875
:104000000000002054000000280100087040000853
:104010005400002064060000440100080000000075
:10402000000000007F000000000000000000000011
:104030000000000000000000000000000000000080
:10404000000000000000000000A24A040000000080
:104050000000000001020304060708090000000038
:10406000010203040102030406070809020406080A
:0400000508001319C3
:00000001FF
